{
  "_format": "hh-sol-artifact-1",
  "contractName": "Village",
  "sourceName": "contracts/Village.sol",
  "abi": [
    {
      "inputs": [
        {
          "internalType": "address",
          "name": "_manager",
          "type": "address"
        }
      ],
      "stateMutability": "nonpayable",
      "type": "constructor"
    },
    {
      "anonymous": false,
      "inputs": [
        {
          "indexed": true,
          "internalType": "address",
          "name": "owner",
          "type": "address"
        },
        {
          "indexed": true,
          "internalType": "address",
          "name": "approved",
          "type": "address"
        },
        {
          "indexed": true,
          "internalType": "uint256",
          "name": "tokenId",
          "type": "uint256"
        }
      ],
      "name": "Approval",
      "type": "event"
    },
    {
      "anonymous": false,
      "inputs": [
        {
          "indexed": true,
          "internalType": "address",
          "name": "owner",
          "type": "address"
        },
        {
          "indexed": true,
          "internalType": "address",
          "name": "operator",
          "type": "address"
        },
        {
          "indexed": false,
          "internalType": "bool",
          "name": "approved",
          "type": "bool"
        }
      ],
      "name": "ApprovalForAll",
      "type": "event"
    },
    {
      "anonymous": false,
      "inputs": [
        {
          "indexed": true,
          "internalType": "address",
          "name": "from",
          "type": "address"
        },
        {
          "indexed": true,
          "internalType": "address",
          "name": "to",
          "type": "address"
        },
        {
          "indexed": true,
          "internalType": "uint256",
          "name": "tokenId",
          "type": "uint256"
        }
      ],
      "name": "Transfer",
      "type": "event"
    },
    {
      "inputs": [
        {
          "internalType": "address",
          "name": "to",
          "type": "address"
        },
        {
          "internalType": "uint256",
          "name": "tokenId",
          "type": "uint256"
        }
      ],
      "name": "approve",
      "outputs": [],
      "stateMutability": "nonpayable",
      "type": "function"
    },
    {
      "inputs": [
        {
          "internalType": "address",
          "name": "owner",
          "type": "address"
        }
      ],
      "name": "balanceOf",
      "outputs": [
        {
          "internalType": "uint256",
          "name": "",
          "type": "uint256"
        }
      ],
      "stateMutability": "view",
      "type": "function"
    },
    {
      "inputs": [],
      "name": "baseURI",
      "outputs": [
        {
          "internalType": "string",
          "name": "",
          "type": "string"
        }
      ],
      "stateMutability": "view",
      "type": "function"
    },
    {
      "inputs": [
        {
          "internalType": "uint256",
          "name": "tokenId",
          "type": "uint256"
        }
      ],
      "name": "getApproved",
      "outputs": [
        {
          "internalType": "address",
          "name": "",
          "type": "address"
        }
      ],
      "stateMutability": "view",
      "type": "function"
    },
    {
      "inputs": [
        {
          "internalType": "uint256",
          "name": "tokenId",
          "type": "uint256"
        }
      ],
      "name": "getPollinationScore",
      "outputs": [
        {
          "internalType": "uint256",
          "name": "",
          "type": "uint256"
        }
      ],
      "stateMutability": "pure",
      "type": "function"
    },
    {
      "inputs": [
        {
          "internalType": "uint256",
          "name": "tokenIds",
          "type": "uint256"
        }
      ],
      "name": "getVillagerCount",
      "outputs": [
        {
          "internalType": "uint256",
          "name": "",
          "type": "uint256"
        }
      ],
      "stateMutability": "pure",
      "type": "function"
    },
    {
      "inputs": [
        {
          "internalType": "uint256[]",
          "name": "tokenIds",
          "type": "uint256[]"
        }
      ],
      "name": "getVillages",
      "outputs": [
        {
          "components": [
            {
              "internalType": "address",
              "name": "head",
              "type": "address"
            },
            {
              "internalType": "string",
              "name": "name",
              "type": "string"
            },
            {
              "internalType": "uint256[]",
              "name": "permitPrices",
              "type": "uint256[]"
            },
            {
              "internalType": "uint256[]",
              "name": "duration",
              "type": "uint256[]"
            },
            {
              "internalType": "string",
              "name": "dataURI",
              "type": "string"
            },
            {
              "internalType": "string",
              "name": "color0",
              "type": "string"
            },
            {
              "internalType": "string",
              "name": "color1",
              "type": "string"
            },
            {
              "internalType": "string",
              "name": "color2",
              "type": "string"
            },
            {
              "internalType": "string",
              "name": "color3",
              "type": "string"
            },
            {
              "internalType": "uint256",
              "name": "pollinationScore",
              "type": "uint256"
            },
            {
              "internalType": "uint256",
              "name": "villagerCount",
              "type": "uint256"
            }
          ],
          "internalType": "struct Village.VillageData[]",
          "name": "",
          "type": "tuple[]"
        }
      ],
      "stateMutability": "view",
      "type": "function"
    },
    {
      "inputs": [
        {
          "internalType": "address",
          "name": "owner",
          "type": "address"
        },
        {
          "internalType": "address",
          "name": "operator",
          "type": "address"
        }
      ],
      "name": "isApprovedForAll",
      "outputs": [
        {
          "internalType": "bool",
          "name": "",
          "type": "bool"
        }
      ],
      "stateMutability": "view",
      "type": "function"
    },
    {
      "inputs": [],
      "name": "manager",
      "outputs": [
        {
          "internalType": "contract Manager",
          "name": "",
          "type": "address"
        }
      ],
      "stateMutability": "view",
      "type": "function"
    },
    {
      "inputs": [
        {
          "components": [
            {
              "internalType": "address",
              "name": "head",
              "type": "address"
            },
            {
              "internalType": "string",
              "name": "name",
              "type": "string"
            },
            {
              "internalType": "uint256[]",
              "name": "permitPrices",
              "type": "uint256[]"
            },
            {
              "internalType": "uint256[]",
              "name": "duration",
              "type": "uint256[]"
            },
            {
              "internalType": "string",
              "name": "dataURI",
              "type": "string"
            },
            {
              "internalType": "string",
              "name": "color0",
              "type": "string"
            },
            {
              "internalType": "string",
              "name": "color1",
              "type": "string"
            },
            {
              "internalType": "string",
              "name": "color2",
              "type": "string"
            },
            {
              "internalType": "string",
              "name": "color3",
              "type": "string"
            },
            {
              "internalType": "uint256",
              "name": "pollinationScore",
              "type": "uint256"
            },
            {
              "internalType": "uint256",
              "name": "villagerCount",
              "type": "uint256"
            }
          ],
          "internalType": "struct Village.VillageData",
          "name": "village",
          "type": "tuple"
        }
      ],
      "name": "mint",
      "outputs": [],
      "stateMutability": "nonpayable",
      "type": "function"
    },
    {
      "inputs": [],
      "name": "name",
      "outputs": [
        {
          "internalType": "string",
          "name": "",
          "type": "string"
        }
      ],
      "stateMutability": "view",
      "type": "function"
    },
    {
      "inputs": [
        {
          "internalType": "uint256",
          "name": "tokenId",
          "type": "uint256"
        }
      ],
      "name": "ownerOf",
      "outputs": [
        {
          "internalType": "address",
          "name": "",
          "type": "address"
        }
      ],
      "stateMutability": "view",
      "type": "function"
    },
    {
      "inputs": [
        {
          "internalType": "address",
          "name": "from",
          "type": "address"
        },
        {
          "internalType": "address",
          "name": "to",
          "type": "address"
        },
        {
          "internalType": "uint256",
          "name": "tokenId",
          "type": "uint256"
        }
      ],
      "name": "safeTransferFrom",
      "outputs": [],
      "stateMutability": "nonpayable",
      "type": "function"
    },
    {
      "inputs": [
        {
          "internalType": "address",
          "name": "from",
          "type": "address"
        },
        {
          "internalType": "address",
          "name": "to",
          "type": "address"
        },
        {
          "internalType": "uint256",
          "name": "tokenId",
          "type": "uint256"
        },
        {
          "internalType": "bytes",
          "name": "_data",
          "type": "bytes"
        }
      ],
      "name": "safeTransferFrom",
      "outputs": [],
      "stateMutability": "nonpayable",
      "type": "function"
    },
    {
      "inputs": [
        {
          "internalType": "address",
          "name": "operator",
          "type": "address"
        },
        {
          "internalType": "bool",
          "name": "approved",
          "type": "bool"
        }
      ],
      "name": "setApprovalForAll",
      "outputs": [],
      "stateMutability": "nonpayable",
      "type": "function"
    },
    {
      "inputs": [
        {
          "internalType": "bytes4",
          "name": "interfaceId",
          "type": "bytes4"
        }
      ],
      "name": "supportsInterface",
      "outputs": [
        {
          "internalType": "bool",
          "name": "",
          "type": "bool"
        }
      ],
      "stateMutability": "view",
      "type": "function"
    },
    {
      "inputs": [],
      "name": "symbol",
      "outputs": [
        {
          "internalType": "string",
          "name": "",
          "type": "string"
        }
      ],
      "stateMutability": "view",
      "type": "function"
    },
    {
      "inputs": [
        {
          "internalType": "uint256",
          "name": "index",
          "type": "uint256"
        }
      ],
      "name": "tokenByIndex",
      "outputs": [
        {
          "internalType": "uint256",
          "name": "",
          "type": "uint256"
        }
      ],
      "stateMutability": "view",
      "type": "function"
    },
    {
      "inputs": [
        {
          "internalType": "address",
          "name": "owner",
          "type": "address"
        },
        {
          "internalType": "uint256",
          "name": "index",
          "type": "uint256"
        }
      ],
      "name": "tokenOfOwnerByIndex",
      "outputs": [
        {
          "internalType": "uint256",
          "name": "",
          "type": "uint256"
        }
      ],
      "stateMutability": "view",
      "type": "function"
    },
    {
      "inputs": [
        {
          "internalType": "uint256",
          "name": "tokenId",
          "type": "uint256"
        }
      ],
      "name": "tokenURI",
      "outputs": [
        {
          "internalType": "string",
          "name": "",
          "type": "string"
        }
      ],
      "stateMutability": "view",
      "type": "function"
    },
    {
      "inputs": [
        {
          "internalType": "uint256[]",
          "name": "tokenIds",
          "type": "uint256[]"
        }
      ],
      "name": "tokenURIs",
      "outputs": [
        {
          "internalType": "string[]",
          "name": "",
          "type": "string[]"
        }
      ],
      "stateMutability": "view",
      "type": "function"
    },
    {
      "inputs": [],
      "name": "totalSupply",
      "outputs": [
        {
          "internalType": "uint256",
          "name": "",
          "type": "uint256"
        }
      ],
      "stateMutability": "view",
      "type": "function"
    },
    {
      "inputs": [
        {
          "internalType": "address",
          "name": "from",
          "type": "address"
        },
        {
          "internalType": "address",
          "name": "to",
          "type": "address"
        },
        {
          "internalType": "uint256",
          "name": "tokenId",
          "type": "uint256"
        }
      ],
      "name": "transferFrom",
      "outputs": [],
      "stateMutability": "nonpayable",
      "type": "function"
    },
    {
      "inputs": [
        {
          "internalType": "uint256",
          "name": "",
          "type": "uint256"
        }
      ],
      "name": "villages",
      "outputs": [
        {
          "internalType": "address",
          "name": "head",
          "type": "address"
        },
        {
          "internalType": "string",
          "name": "name",
          "type": "string"
        },
        {
          "internalType": "string",
          "name": "dataURI",
          "type": "string"
        },
        {
          "internalType": "string",
          "name": "color0",
          "type": "string"
        },
        {
          "internalType": "string",
          "name": "color1",
          "type": "string"
        },
        {
          "internalType": "string",
          "name": "color2",
          "type": "string"
        },
        {
          "internalType": "string",
          "name": "color3",
          "type": "string"
        },
        {
          "internalType": "uint256",
          "name": "pollinationScore",
          "type": "uint256"
        },
        {
          "internalType": "uint256",
          "name": "villagerCount",
          "type": "uint256"
        }
      ],
      "stateMutability": "view",
      "type": "function"
    }
  ],
  "bytecode": "0x60806040523480156200001157600080fd5b5060405162004be738038062004be7833981810160405281019062000037919062000355565b6040518060400160405280600981526020017f5a7576696c6c61676500000000000000000000000000000000000000000000008152506040518060400160405280600381526020017f5a564c0000000000000000000000000000000000000000000000000000000000815250620000bb6301ffc9a760e01b6200017f60201b60201c565b8160069080519060200190620000d392919062000288565b508060079080519060200190620000ec92919062000288565b50620001056380ac58cd60e01b6200017f60201b60201c565b6200011d635b5e139f60e01b6200017f60201b60201c565b6200013563780e9d6360e01b6200017f60201b60201c565b505080600a60006101000a81548173ffffffffffffffffffffffffffffffffffffffff021916908373ffffffffffffffffffffffffffffffffffffffff16021790555050620003cf565b63ffffffff60e01b817bffffffffffffffffffffffffffffffffffffffffffffffffffffffff191614156200021c576040517f08c379a000000000000000000000000000000000000000000000000000000000815260040180806020018281038252601c8152602001807f4552433136353a20696e76616c696420696e746572666163652069640000000081525060200191505060405180910390fd5b6001600080837bffffffffffffffffffffffffffffffffffffffffffffffffffffffff19167bffffffffffffffffffffffffffffffffffffffffffffffffffffffff1916815260200190815260200160002060006101000a81548160ff02191690831515021790555050565b828054600181600116156101000203166002900490600052602060002090601f016020900481019282620002c057600085556200030c565b82601f10620002db57805160ff19168380011785556200030c565b828001600101855582156200030c579182015b828111156200030b578251825591602001919060010190620002ee565b5b5090506200031b91906200031f565b5090565b5b808211156200033a57600081600090555060010162000320565b5090565b6000815190506200034f81620003b5565b92915050565b6000602082840312156200036857600080fd5b600062000378848285016200033e565b91505092915050565b60006200038e8262000395565b9050919050565b600073ffffffffffffffffffffffffffffffffffffffff82169050919050565b620003c08162000381565b8114620003cc57600080fd5b50565b61480880620003df6000396000f3fe608060405234801561001057600080fd5b50600436106101585760003560e01c80636c0360eb116100c3578063b88d4fde1161007c578063b88d4fde146103ff578063c003ce341461041b578063c87b56dd1461044b578063c90cd15c1461047b578063d4aea411146104ab578063e985e9c5146104e357610158565b80636c0360eb1461032b5780636cc8d8cf1461034957806370a082311461037957806395d89b41146103a957806396418245146103c7578063a22cb465146103e357610158565b806323b872dd1161011557806323b872dd146102455780632f745c591461026157806342842e0e14610291578063481c6a75146102ad5780634f6ccce7146102cb5780636352211e146102fb57610158565b806301ffc9a71461015d57806306fdde031461018d578063081812fc146101ab578063095ea7b3146101db57806312def0c5146101f757806318160ddd14610227575b600080fd5b61017760048036038101906101729190613a5f565b610513565b60405161018491906141e9565b60405180910390f35b61019561057a565b6040516101a2919061421f565b60405180910390f35b6101c560048036038101906101c09190613b0a565b61061c565b6040516101d291906140b8565b60405180910390f35b6101f560048036038101906101f091906139e2565b6106b7565b005b610211600480360381019061020c9190613a1e565b6107fb565b60405161021e91906141c7565b60405180910390f35b61022f610e48565b60405161023c9190614263565b60405180910390f35b61025f600480360381019061025a91906138dc565b610e59565b005b61027b600480360381019061027691906139e2565b610ecf565b6040516102889190614263565b60405180910390f35b6102ab60048036038101906102a691906138dc565b610f2a565b005b6102b5610f4a565b6040516102c29190614204565b60405180910390f35b6102e560048036038101906102e09190613b0a565b610f70565b6040516102f29190614263565b60405180910390f35b61031560048036038101906103109190613b0a565b610f93565b60405161032291906140b8565b60405180910390f35b610333610fca565b604051610340919061421f565b60405180910390f35b610363600480360381019061035e9190613a1e565b61106c565b60405161037091906141a5565b60405180910390f35b610393600480360381019061038e9190613877565b61111b565b6040516103a09190614263565b60405180910390f35b6103b16111f0565b6040516103be919061421f565b60405180910390f35b6103e160048036038101906103dc9190613ac9565b611292565b005b6103fd60048036038101906103f891906139a6565b611495565b005b6104196004803603810190610414919061392b565b61164b565b005b61043560048036038101906104309190613b0a565b6116c3565b6040516104429190614263565b60405180910390f35b61046560048036038101906104609190613b0a565b6116ca565b604051610472919061421f565b60405180910390f35b61049560048036038101906104909190613b0a565b611d05565b6040516104a29190614263565b60405180910390f35b6104c560048036038101906104c09190613b0a565b611d0c565b6040516104da999897969594939291906140ee565b60405180910390f35b6104fd60048036038101906104f891906138a0565b61210a565b60405161050a91906141e9565b60405180910390f35b6000806000837bffffffffffffffffffffffffffffffffffffffffffffffffffffffff19167bffffffffffffffffffffffffffffffffffffffffffffffffffffffff1916815260200190815260200160002060009054906101000a900460ff169050919050565b606060068054600181600116156101000203166002900480601f0160208091040260200160405190810160405280929190818152602001828054600181600116156101000203166002900480156106125780601f106105e757610100808354040283529160200191610612565b820191906000526020600020905b8154815290600101906020018083116105f557829003601f168201915b5050505050905090565b60006106278261219e565b61067c576040517f08c379a000000000000000000000000000000000000000000000000000000000815260040180806020018281038252602c81526020018061472c602c913960400191505060405180910390fd5b6004600083815260200190815260200160002060009054906101000a900473ffffffffffffffffffffffffffffffffffffffff169050919050565b60006106c282610f93565b90508073ffffffffffffffffffffffffffffffffffffffff168373ffffffffffffffffffffffffffffffffffffffff161415610749576040517f08c379a00000000000000000000000000000000000000000000000000000000081526004018080602001828103825260218152602001806147816021913960400191505060405180910390fd5b8073ffffffffffffffffffffffffffffffffffffffff166107686121bb565b73ffffffffffffffffffffffffffffffffffffffff1614806107975750610796816107916121bb565b61210a565b5b6107ec576040517f08c379a000000000000000000000000000000000000000000000000000000000815260040180806020018281038252603881526020018061467f6038913960400191505060405180910390fd5b6107f683836121c3565b505050565b60606000825167ffffffffffffffff8111801561081757600080fd5b5060405190808252806020026020018201604052801561085157816020015b61083e613325565b8152602001906001900390816108365790505b50905060005b8351811015610e3e57600084828151811061086e57fe5b602002602001015190506000600b6000838152602001908152602001600020604051806101600160405290816000820160009054906101000a900473ffffffffffffffffffffffffffffffffffffffff1673ffffffffffffffffffffffffffffffffffffffff1673ffffffffffffffffffffffffffffffffffffffff168152602001600182018054600181600116156101000203166002900480601f0160208091040260200160405190810160405280929190818152602001828054600181600116156101000203166002900480156109885780601f1061095d57610100808354040283529160200191610988565b820191906000526020600020905b81548152906001019060200180831161096b57829003601f168201915b50505050508152602001600282018054806020026020016040519081016040528092919081815260200182805480156109e057602002820191906000526020600020905b8154815260200190600101908083116109cc575b5050505050815260200160038201805480602002602001604051908101604052809291908181526020018280548015610a3857602002820191906000526020600020905b815481526020019060010190808311610a24575b50505050508152602001600482018054600181600116156101000203166002900480601f016020809104026020016040519081016040528092919081815260200182805460018160011615610100020316600290048015610ada5780601f10610aaf57610100808354040283529160200191610ada565b820191906000526020600020905b815481529060010190602001808311610abd57829003601f168201915b50505050508152602001600582018054600181600116156101000203166002900480601f016020809104026020016040519081016040528092919081815260200182805460018160011615610100020316600290048015610b7c5780601f10610b5157610100808354040283529160200191610b7c565b820191906000526020600020905b815481529060010190602001808311610b5f57829003601f168201915b50505050508152602001600682018054600181600116156101000203166002900480601f016020809104026020016040519081016040528092919081815260200182805460018160011615610100020316600290048015610c1e5780601f10610bf357610100808354040283529160200191610c1e565b820191906000526020600020905b815481529060010190602001808311610c0157829003601f168201915b50505050508152602001600782018054600181600116156101000203166002900480601f016020809104026020016040519081016040528092919081815260200182805460018160011615610100020316600290048015610cc05780601f10610c9557610100808354040283529160200191610cc0565b820191906000526020600020905b815481529060010190602001808311610ca357829003601f168201915b50505050508152602001600882018054600181600116156101000203166002900480601f016020809104026020016040519081016040528092919081815260200182805460018160011615610100020316600290048015610d625780601f10610d3757610100808354040283529160200191610d62565b820191906000526020600020905b815481529060010190602001808311610d4557829003601f168201915b5050505050815260200160098201548152602001600a820154815250509050604051806101600160405280826000015173ffffffffffffffffffffffffffffffffffffffff168152602001826020015181526020018260400151815260200182606001518152602001826080015181526020018260a0015181526020018260c0015181526020018260e0015181526020018261010001518152602001610e07846116c3565b8152602001610e1584611d05565b815250848481518110610e2457fe5b602002602001018190525050508080600101915050610857565b5080915050919050565b6000610e54600261227c565b905090565b610e6a610e646121bb565b82612291565b610ebf576040517f08c379a00000000000000000000000000000000000000000000000000000000081526004018080602001828103825260318152602001806147a26031913960400191505060405180910390fd5b610eca838383612385565b505050565b6000610f2282600160008673ffffffffffffffffffffffffffffffffffffffff1673ffffffffffffffffffffffffffffffffffffffff1681526020019081526020016000206125c890919063ffffffff16565b905092915050565b610f458383836040518060200160405280600081525061164b565b505050565b600a60009054906101000a900473ffffffffffffffffffffffffffffffffffffffff1681565b600080610f878360026125e290919063ffffffff16565b50905080915050919050565b6000610fc3826040518060600160405280602981526020016146e160299139600261260e9092919063ffffffff16565b9050919050565b606060098054600181600116156101000203166002900480601f0160208091040260200160405190810160405280929190818152602001828054600181600116156101000203166002900480156110625780601f1061103757610100808354040283529160200191611062565b820191906000526020600020905b81548152906001019060200180831161104557829003601f168201915b5050505050905090565b60606000825167ffffffffffffffff8111801561108857600080fd5b506040519080825280602002602001820160405280156110bc57816020015b60608152602001906001900390816110a75790505b50905060005b83518110156111115760008482815181106110d957fe5b602002602001015190506110ec816116ca565b8383815181106110f857fe5b60200260200101819052505080806001019150506110c2565b5080915050919050565b60008073ffffffffffffffffffffffffffffffffffffffff168273ffffffffffffffffffffffffffffffffffffffff1614156111a2576040517f08c379a000000000000000000000000000000000000000000000000000000000815260040180806020018281038252602a8152602001806146b7602a913960400191505060405180910390fd5b6111e9600160008473ffffffffffffffffffffffffffffffffffffffff1673ffffffffffffffffffffffffffffffffffffffff16815260200190815260200160002061262d565b9050919050565b606060078054600181600116156101000203166002900480601f0160208091040260200160405190810160405280929190818152602001828054600181600116156101000203166002900480156112885780601f1061125d57610100808354040283529160200191611288565b820191906000526020600020905b81548152906001019060200180831161126b57829003601f168201915b5050505050905090565b600a60009054906101000a900473ffffffffffffffffffffffffffffffffffffffff1673ffffffffffffffffffffffffffffffffffffffff1663c46cd74b336040518263ffffffff1660e01b81526004016112ed91906140d3565b60006040518083038186803b15801561130557600080fd5b505afa158015611319573d6000803e3d6000fd5b5050505061132e33611329610e48565b612642565b80600b600061133b610e48565b815260200190815260200160002060008201518160000160006101000a81548173ffffffffffffffffffffffffffffffffffffffff021916908373ffffffffffffffffffffffffffffffffffffffff16021790555060208201518160010190805190602001906113ac929190613395565b5060408201518160020190805190602001906113c9929190613423565b5060608201518160030190805190602001906113e6929190613423565b506080820151816004019080519060200190611403929190613395565b5060a0820151816005019080519060200190611420929190613395565b5060c082015181600601908051906020019061143d929190613395565b5060e082015181600701908051906020019061145a929190613395565b50610100820151816008019080519060200190611478929190613395565b50610120820151816009015561014082015181600a015590505050565b61149d6121bb565b73ffffffffffffffffffffffffffffffffffffffff168273ffffffffffffffffffffffffffffffffffffffff16141561153e576040517f08c379a00000000000000000000000000000000000000000000000000000000081526004018080602001828103825260198152602001807f4552433732313a20617070726f766520746f2063616c6c65720000000000000081525060200191505060405180910390fd5b806005600061154b6121bb565b73ffffffffffffffffffffffffffffffffffffffff1673ffffffffffffffffffffffffffffffffffffffff16815260200190815260200160002060008473ffffffffffffffffffffffffffffffffffffffff1673ffffffffffffffffffffffffffffffffffffffff16815260200190815260200160002060006101000a81548160ff0219169083151502179055508173ffffffffffffffffffffffffffffffffffffffff166115f86121bb565b73ffffffffffffffffffffffffffffffffffffffff167f17307eab39ab6107e8899845ad3d59bd9653f200f220920489ca2b5937696c318360405180821515815260200191505060405180910390a35050565b61165c6116566121bb565b83612291565b6116b1576040517f08c379a00000000000000000000000000000000000000000000000000000000081526004018080602001828103825260318152602001806147a26031913960400191505060405180910390fd5b6116bd84848484612660565b50505050565b6000919050565b60606000600b6000848152602001908152602001600020604051806101600160405290816000820160009054906101000a900473ffffffffffffffffffffffffffffffffffffffff1673ffffffffffffffffffffffffffffffffffffffff1673ffffffffffffffffffffffffffffffffffffffff168152602001600182018054600181600116156101000203166002900480601f0160208091040260200160405190810160405280929190818152602001828054600181600116156101000203166002900480156117dc5780601f106117b1576101008083540402835291602001916117dc565b820191906000526020600020905b8154815290600101906020018083116117bf57829003601f168201915b505050505081526020016002820180548060200260200160405190810160405280929190818152602001828054801561183457602002820191906000526020600020905b815481526020019060010190808311611820575b505050505081526020016003820180548060200260200160405190810160405280929190818152602001828054801561188c57602002820191906000526020600020905b815481526020019060010190808311611878575b50505050508152602001600482018054600181600116156101000203166002900480601f01602080910402602001604051908101604052809291908181526020018280546001816001161561010002031660029004801561192e5780601f106119035761010080835404028352916020019161192e565b820191906000526020600020905b81548152906001019060200180831161191157829003601f168201915b50505050508152602001600582018054600181600116156101000203166002900480601f0160208091040260200160405190810160405280929190818152602001828054600181600116156101000203166002900480156119d05780601f106119a5576101008083540402835291602001916119d0565b820191906000526020600020905b8154815290600101906020018083116119b357829003601f168201915b50505050508152602001600682018054600181600116156101000203166002900480601f016020809104026020016040519081016040528092919081815260200182805460018160011615610100020316600290048015611a725780601f10611a4757610100808354040283529160200191611a72565b820191906000526020600020905b815481529060010190602001808311611a5557829003601f168201915b50505050508152602001600782018054600181600116156101000203166002900480601f016020809104026020016040519081016040528092919081815260200182805460018160011615610100020316600290048015611b145780601f10611ae957610100808354040283529160200191611b14565b820191906000526020600020905b815481529060010190602001808311611af757829003601f168201915b50505050508152602001600882018054600181600116156101000203166002900480601f016020809104026020016040519081016040528092919081815260200182805460018160011615610100020316600290048015611bb65780601f10611b8b57610100808354040283529160200191611bb6565b820191906000526020600020905b815481529060010190602001808311611b9957829003601f168201915b5050505050815260200160098201548152602001600a82015481525050905073__$e1d8844a0810dc0e87a665b1f2b5fa7c69$__63c49917d7604051806101800160405280868152602001846000015173ffffffffffffffffffffffffffffffffffffffff168152602001846020015181526020018460400151815260200184606001518152602001846080015181526020018460a0015181526020018460c0015181526020018460e0015181526020018461010001518152602001611c7b876116c3565b8152602001611c8987611d05565b8152506040518263ffffffff1660e01b8152600401611ca89190614241565b60006040518083038186803b158015611cc057600080fd5b505af4158015611cd4573d6000803e3d6000fd5b505050506040513d6000823e3d601f19601f82011682018060405250810190611cfd9190613a88565b915050919050565b6000919050565b600b6020528060005260406000206000915090508060000160009054906101000a900473ffffffffffffffffffffffffffffffffffffffff1690806001018054600181600116156101000203166002900480601f016020809104026020016040519081016040528092919081815260200182805460018160011615610100020316600290048015611dde5780601f10611db357610100808354040283529160200191611dde565b820191906000526020600020905b815481529060010190602001808311611dc157829003601f168201915b505050505090806004018054600181600116156101000203166002900480601f016020809104026020016040519081016040528092919081815260200182805460018160011615610100020316600290048015611e7c5780601f10611e5157610100808354040283529160200191611e7c565b820191906000526020600020905b815481529060010190602001808311611e5f57829003601f168201915b505050505090806005018054600181600116156101000203166002900480601f016020809104026020016040519081016040528092919081815260200182805460018160011615610100020316600290048015611f1a5780601f10611eef57610100808354040283529160200191611f1a565b820191906000526020600020905b815481529060010190602001808311611efd57829003601f168201915b505050505090806006018054600181600116156101000203166002900480601f016020809104026020016040519081016040528092919081815260200182805460018160011615610100020316600290048015611fb85780601f10611f8d57610100808354040283529160200191611fb8565b820191906000526020600020905b815481529060010190602001808311611f9b57829003601f168201915b505050505090806007018054600181600116156101000203166002900480601f0160208091040260200160405190810160405280929190818152602001828054600181600116156101000203166002900480156120565780601f1061202b57610100808354040283529160200191612056565b820191906000526020600020905b81548152906001019060200180831161203957829003601f168201915b505050505090806008018054600181600116156101000203166002900480601f0160208091040260200160405190810160405280929190818152602001828054600181600116156101000203166002900480156120f45780601f106120c9576101008083540402835291602001916120f4565b820191906000526020600020905b8154815290600101906020018083116120d757829003601f168201915b50505050509080600901549080600a0154905089565b6000600560008473ffffffffffffffffffffffffffffffffffffffff1673ffffffffffffffffffffffffffffffffffffffff16815260200190815260200160002060008373ffffffffffffffffffffffffffffffffffffffff1673ffffffffffffffffffffffffffffffffffffffff16815260200190815260200160002060009054906101000a900460ff16905092915050565b60006121b48260026126d290919063ffffffff16565b9050919050565b600033905090565b816004600083815260200190815260200160002060006101000a81548173ffffffffffffffffffffffffffffffffffffffff021916908373ffffffffffffffffffffffffffffffffffffffff160217905550808273ffffffffffffffffffffffffffffffffffffffff1661223683610f93565b73ffffffffffffffffffffffffffffffffffffffff167f8c5be1e5ebec7d5bd14f71427d1e84f3dd0314c0f7b2291e5b200ac8c7c3b92560405160405180910390a45050565b600061228a826000016126ec565b9050919050565b600061229c8261219e565b6122f1576040517f08c379a000000000000000000000000000000000000000000000000000000000815260040180806020018281038252602c815260200180614653602c913960400191505060405180910390fd5b60006122fc83610f93565b90508073ffffffffffffffffffffffffffffffffffffffff168473ffffffffffffffffffffffffffffffffffffffff16148061236b57508373ffffffffffffffffffffffffffffffffffffffff166123538461061c565b73ffffffffffffffffffffffffffffffffffffffff16145b8061237c575061237b818561210a565b5b91505092915050565b8273ffffffffffffffffffffffffffffffffffffffff166123a582610f93565b73ffffffffffffffffffffffffffffffffffffffff1614612411576040517f08c379a00000000000000000000000000000000000000000000000000000000081526004018080602001828103825260298152602001806147586029913960400191505060405180910390fd5b600073ffffffffffffffffffffffffffffffffffffffff168273ffffffffffffffffffffffffffffffffffffffff161415612497576040517f08c379a00000000000000000000000000000000000000000000000000000000081526004018080602001828103825260248152602001806146096024913960400191505060405180910390fd5b6124a28383836126fd565b6124ad6000826121c3565b6124fe81600160008673ffffffffffffffffffffffffffffffffffffffff1673ffffffffffffffffffffffffffffffffffffffff16815260200190815260200160002061270290919063ffffffff16565b5061255081600160008573ffffffffffffffffffffffffffffffffffffffff1673ffffffffffffffffffffffffffffffffffffffff16815260200190815260200160002061271c90919063ffffffff16565b50612567818360026127369092919063ffffffff16565b50808273ffffffffffffffffffffffffffffffffffffffff168473ffffffffffffffffffffffffffffffffffffffff167fddf252ad1be2c89b69c2b068fc378daa952ba7f163c4a11628f55a4df523b3ef60405160405180910390a4505050565b60006125d7836000018361276b565b60001c905092915050565b6000806000806125f586600001866127ee565b915091508160001c8160001c9350935050509250929050565b6000612621846000018460001b84612887565b60001c90509392505050565b600061263b8260000161297d565b9050919050565b61265c82826040518060200160405280600081525061298e565b5050565b61266b848484612385565b612677848484846129ff565b6126cc576040517f08c379a00000000000000000000000000000000000000000000000000000000081526004018080602001828103825260328152602001806145d76032913960400191505060405180910390fd5b50505050565b60006126e4836000018360001b612c18565b905092915050565b600081600001805490509050919050565b505050565b6000612714836000018360001b612c3b565b905092915050565b600061272e836000018360001b612d23565b905092915050565b6000612762846000018460001b8473ffffffffffffffffffffffffffffffffffffffff1660001b612d93565b90509392505050565b6000818360000180549050116127cc576040517f08c379a00000000000000000000000000000000000000000000000000000000081526004018080602001828103825260228152602001806145b56022913960400191505060405180910390fd5b8260000182815481106127db57fe5b9060005260206000200154905092915050565b60008082846000018054905011612850576040517f08c379a000000000000000000000000000000000000000000000000000000000815260040180806020018281038252602281526020018061470a6022913960400191505060405180910390fd5b600084600001848154811061286157fe5b906000526020600020906002020190508060000154816001015492509250509250929050565b6000808460010160008581526020019081526020016000205490506000811415839061294e576040517f08c379a00000000000000000000000000000000000000000000000000000000081526004018080602001828103825283818151815260200191508051906020019080838360005b838110156129135780820151818401526020810190506128f8565b50505050905090810190601f1680156129405780820380516001836020036101000a031916815260200191505b509250505060405180910390fd5b5084600001600182038154811061296157fe5b9060005260206000209060020201600101549150509392505050565b600081600001805490509050919050565b6129988383612e6f565b6129a560008484846129ff565b6129fa576040517f08c379a00000000000000000000000000000000000000000000000000000000081526004018080602001828103825260328152602001806145d76032913960400191505060405180910390fd5b505050565b6000612a208473ffffffffffffffffffffffffffffffffffffffff16613063565b612a2d5760019050612c10565b6000612b9763150b7a0260e01b612a426121bb565b888787604051602401808573ffffffffffffffffffffffffffffffffffffffff1681526020018473ffffffffffffffffffffffffffffffffffffffff16815260200183815260200180602001828103825283818151815260200191508051906020019080838360005b83811015612ac6578082015181840152602081019050612aab565b50505050905090810190601f168015612af35780820380516001836020036101000a031916815260200191505b5095505050505050604051602081830303815290604052907bffffffffffffffffffffffffffffffffffffffffffffffffffffffff19166020820180517bffffffffffffffffffffffffffffffffffffffffffffffffffffffff83818316178352505050506040518060600160405280603281526020016145d7603291398773ffffffffffffffffffffffffffffffffffffffff166130769092919063ffffffff16565b90506000818060200190516020811015612bb057600080fd5b8101908080519060200190929190505050905063150b7a0260e01b7bffffffffffffffffffffffffffffffffffffffffffffffffffffffff1916817bffffffffffffffffffffffffffffffffffffffffffffffffffffffff191614925050505b949350505050565b600080836001016000848152602001908152602001600020541415905092915050565b60008083600101600084815260200190815260200160002054905060008114612d175760006001820390506000600186600001805490500390506000866000018281548110612c8657fe5b9060005260206000200154905080876000018481548110612ca357fe5b9060005260206000200181905550600183018760010160008381526020019081526020016000208190555086600001805480612cdb57fe5b60019003818190600052602060002001600090559055866001016000878152602001908152602001600020600090556001945050505050612d1d565b60009150505b92915050565b6000612d2f838361308e565b612d88578260000182908060018154018082558091505060019003906000526020600020016000909190919091505582600001805490508360010160008481526020019081526020016000208190555060019050612d8d565b600090505b92915050565b6000808460010160008581526020019081526020016000205490506000811415612e3a57846000016040518060400160405280868152602001858152509080600181540180825580915050600190039060005260206000209060020201600090919091909150600082015181600001556020820151816001015550508460000180549050856001016000868152602001908152602001600020819055506001915050612e68565b82856000016001830381548110612e4d57fe5b90600052602060002090600202016001018190555060009150505b9392505050565b600073ffffffffffffffffffffffffffffffffffffffff168273ffffffffffffffffffffffffffffffffffffffff161415612f12576040517f08c379a00000000000000000000000000000000000000000000000000000000081526004018080602001828103825260208152602001807f4552433732313a206d696e7420746f20746865207a65726f206164647265737381525060200191505060405180910390fd5b612f1b8161219e565b15612f8e576040517f08c379a000000000000000000000000000000000000000000000000000000000815260040180806020018281038252601c8152602001807f4552433732313a20746f6b656e20616c7265616479206d696e7465640000000081525060200191505060405180910390fd5b612f9a600083836126fd565b612feb81600160008573ffffffffffffffffffffffffffffffffffffffff1673ffffffffffffffffffffffffffffffffffffffff16815260200190815260200160002061271c90919063ffffffff16565b50613002818360026127369092919063ffffffff16565b50808273ffffffffffffffffffffffffffffffffffffffff16600073ffffffffffffffffffffffffffffffffffffffff167fddf252ad1be2c89b69c2b068fc378daa952ba7f163c4a11628f55a4df523b3ef60405160405180910390a45050565b600080823b905060008111915050919050565b606061308584846000856130b1565b90509392505050565b600080836001016000848152602001908152602001600020541415905092915050565b60608247101561310c576040517f08c379a000000000000000000000000000000000000000000000000000000000815260040180806020018281038252602681526020018061462d6026913960400191505060405180910390fd5b61311585613063565b613187576040517f08c379a000000000000000000000000000000000000000000000000000000000815260040180806020018281038252601d8152602001807f416464726573733a2063616c6c20746f206e6f6e2d636f6e747261637400000081525060200191505060405180910390fd5b6000808673ffffffffffffffffffffffffffffffffffffffff1685876040518082805190602001908083835b602083106131d657805182526020820191506020810190506020830392506131b3565b6001836020036101000a03801982511681845116808217855250505050505090500191505060006040518083038185875af1925050503d8060008114613238576040519150601f19603f3d011682016040523d82523d6000602084013e61323d565b606091505b509150915061324d828286613259565b92505050949350505050565b606083156132695782905061331e565b60008351111561327c5782518084602001fd5b816040517f08c379a00000000000000000000000000000000000000000000000000000000081526004018080602001828103825283818151815260200191508051906020019080838360005b838110156132e35780820151818401526020810190506132c8565b50505050905090810190601f1680156133105780820380516001836020036101000a031916815260200191505b509250505060405180910390fd5b9392505050565b604051806101600160405280600073ffffffffffffffffffffffffffffffffffffffff168152602001606081526020016060815260200160608152602001606081526020016060815260200160608152602001606081526020016060815260200160008152602001600081525090565b828054600181600116156101000203166002900490600052602060002090601f0160209004810192826133cb5760008555613412565b82601f106133e457805160ff1916838001178555613412565b82800160010185558215613412579182015b828111156134115782518255916020019190600101906133f6565b5b50905061341f9190613470565b5090565b82805482825590600052602060002090810192821561345f579160200282015b8281111561345e578251825591602001919060010190613443565b5b50905061346c9190613470565b5090565b5b80821115613489576000816000905550600101613471565b5090565b60006134a061349b846142af565b61427e565b905080838252602082019050828560208602820111156134bf57600080fd5b60005b858110156134ef57816134d58882613862565b8452602084019350602083019250506001810190506134c2565b5050509392505050565b600061350c613507846142db565b61427e565b90508281526020810184848401111561352457600080fd5b61352f848285614503565b509392505050565b600061354a6135458461430b565b61427e565b90508281526020810184848401111561356257600080fd5b61356d848285614503565b509392505050565b60006135886135838461430b565b61427e565b9050828152602081018484840111156135a057600080fd5b6135ab848285614512565b509392505050565b6000813590506135c281614558565b92915050565b600082601f8301126135d957600080fd5b81356135e984826020860161348d565b91505092915050565b6000813590506136018161456f565b92915050565b60008135905061361681614586565b92915050565b600082601f83011261362d57600080fd5b813561363d8482602086016134f9565b91505092915050565b600082601f83011261365757600080fd5b8135613667848260208601613537565b91505092915050565b600082601f83011261368157600080fd5b8151613691848260208601613575565b91505092915050565b600061016082840312156136ad57600080fd5b6136b861016061427e565b905060006136c8848285016135b3565b600083015250602082013567ffffffffffffffff8111156136e857600080fd5b6136f484828501613646565b602083015250604082013567ffffffffffffffff81111561371457600080fd5b613720848285016135c8565b604083015250606082013567ffffffffffffffff81111561374057600080fd5b61374c848285016135c8565b606083015250608082013567ffffffffffffffff81111561376c57600080fd5b61377884828501613646565b60808301525060a082013567ffffffffffffffff81111561379857600080fd5b6137a484828501613646565b60a08301525060c082013567ffffffffffffffff8111156137c457600080fd5b6137d084828501613646565b60c08301525060e082013567ffffffffffffffff8111156137f057600080fd5b6137fc84828501613646565b60e08301525061010082013567ffffffffffffffff81111561381d57600080fd5b61382984828501613646565b6101008301525061012061383f84828501613862565b6101208301525061014061385584828501613862565b6101408301525092915050565b6000813590506138718161459d565b92915050565b60006020828403121561388957600080fd5b6000613897848285016135b3565b91505092915050565b600080604083850312156138b357600080fd5b60006138c1858286016135b3565b92505060206138d2858286016135b3565b9150509250929050565b6000806000606084860312156138f157600080fd5b60006138ff868287016135b3565b9350506020613910868287016135b3565b925050604061392186828701613862565b9150509250925092565b6000806000806080858703121561394157600080fd5b600061394f878288016135b3565b9450506020613960878288016135b3565b935050604061397187828801613862565b925050606085013567ffffffffffffffff81111561398e57600080fd5b61399a8782880161361c565b91505092959194509250565b600080604083850312156139b957600080fd5b60006139c7858286016135b3565b92505060206139d8858286016135f2565b9150509250929050565b600080604083850312156139f557600080fd5b6000613a03858286016135b3565b9250506020613a1485828601613862565b9150509250929050565b600060208284031215613a3057600080fd5b600082013567ffffffffffffffff811115613a4a57600080fd5b613a56848285016135c8565b91505092915050565b600060208284031215613a7157600080fd5b6000613a7f84828501613607565b91505092915050565b600060208284031215613a9a57600080fd5b600082015167ffffffffffffffff811115613ab457600080fd5b613ac084828501613670565b91505092915050565b600060208284031215613adb57600080fd5b600082013567ffffffffffffffff811115613af557600080fd5b613b018482850161369a565b91505092915050565b600060208284031215613b1c57600080fd5b6000613b2a84828501613862565b91505092915050565b6000613b3f8383613d8b565b905092915050565b6000613b538383613f6b565b905092915050565b6000613b67838361408b565b60208301905092915050565b6000613b7f83836140a9565b60208301905092915050565b613b94816144a9565b82525050565b613ba381614435565b82525050565b613bb281614435565b82525050565b613bc181614435565b82525050565b6000613bd28261436b565b613bdc81856143be565b935083602082028501613bee8561433b565b8060005b85811015613c2a5784840389528151613c0b8582613b33565b9450613c1683614397565b925060208a01995050600181019050613bf2565b50829750879550505050505092915050565b6000613c4782614376565b613c5181856143cf565b935083602082028501613c638561434b565b8060005b85811015613c9f5784840389528151613c808582613b47565b9450613c8b836143a4565b925060208a01995050600181019050613c67565b50829750879550505050505092915050565b6000613cbc82614381565b613cc681856143e0565b9350613cd18361435b565b8060005b83811015613d02578151613ce98882613b5b565b9750613cf4836143b1565b925050600181019050613cd5565b5085935050505092915050565b6000613d1a82614381565b613d2481856143f1565b9350613d2f8361435b565b8060005b83811015613d60578151613d478882613b73565b9750613d52836143b1565b925050600181019050613d33565b5085935050505092915050565b613d7681614447565b82525050565b613d85816144bb565b82525050565b6000613d968261438c565b613da08185614402565b9350613db0818560208601614512565b613db981614547565b840191505092915050565b6000613dcf8261438c565b613dd98185614413565b9350613de9818560208601614512565b613df281614547565b840191505092915050565b6000613e088261438c565b613e128185614424565b9350613e22818560208601614512565b613e2b81614547565b840191505092915050565b600061018083016000830151613e4f60008601826140a9565b506020830151613e626020860182613bb8565b5060408301518482036040860152613e7a8282613dfd565b91505060608301518482036060860152613e948282613d0f565b91505060808301518482036080860152613eae8282613d0f565b91505060a083015184820360a0860152613ec88282613dfd565b91505060c083015184820360c0860152613ee28282613dfd565b91505060e083015184820360e0860152613efc8282613dfd565b915050610100830151848203610100860152613f188282613dfd565b915050610120830151848203610120860152613f348282613dfd565b915050610140830151613f4b6101408601826140a9565b50610160830151613f606101608601826140a9565b508091505092915050565b600061016083016000830151613f846000860182613b9a565b5060208301518482036020860152613f9c8282613d8b565b91505060408301518482036040860152613fb68282613cb1565b91505060608301518482036060860152613fd08282613cb1565b91505060808301518482036080860152613fea8282613d8b565b91505060a083015184820360a08601526140048282613d8b565b91505060c083015184820360c086015261401e8282613d8b565b91505060e083015184820360e08601526140388282613d8b565b9150506101008301518482036101008601526140548282613d8b565b91505061012083015161406b61012086018261408b565b5061014083015161408061014086018261408b565b508091505092915050565b6140948161449f565b82525050565b6140a38161449f565b82525050565b6140b28161449f565b82525050565b60006020820190506140cd6000830184613ba9565b92915050565b60006020820190506140e86000830184613b8b565b92915050565b600061012082019050614104600083018c613ba9565b8181036020830152614116818b613dc4565b9050818103604083015261412a818a613dc4565b9050818103606083015261413e8189613dc4565b905081810360808301526141528188613dc4565b905081810360a08301526141668187613dc4565b905081810360c083015261417a8186613dc4565b905061418960e083018561409a565b61419761010083018461409a565b9a9950505050505050505050565b600060208201905081810360008301526141bf8184613bc7565b905092915050565b600060208201905081810360008301526141e18184613c3c565b905092915050565b60006020820190506141fe6000830184613d6d565b92915050565b60006020820190506142196000830184613d7c565b92915050565b600060208201905081810360008301526142398184613dc4565b905092915050565b6000602082019050818103600083015261425b8184613e36565b905092915050565b6000602082019050614278600083018461409a565b92915050565b6000604051905081810181811067ffffffffffffffff821117156142a5576142a4614545565b5b8060405250919050565b600067ffffffffffffffff8211156142ca576142c9614545565b5b602082029050602081019050919050565b600067ffffffffffffffff8211156142f6576142f5614545565b5b601f19601f8301169050602081019050919050565b600067ffffffffffffffff82111561432657614325614545565b5b601f19601f8301169050602081019050919050565b6000819050602082019050919050565b6000819050602082019050919050565b6000819050602082019050919050565b600081519050919050565b600081519050919050565b600081519050919050565b600081519050919050565b6000602082019050919050565b6000602082019050919050565b6000602082019050919050565b600082825260208201905092915050565b600082825260208201905092915050565b600082825260208201905092915050565b600082825260208201905092915050565b600082825260208201905092915050565b600082825260208201905092915050565b600082825260208201905092915050565b60006144408261447f565b9050919050565b60008115159050919050565b60007fffffffff0000000000000000000000000000000000000000000000000000000082169050919050565b600073ffffffffffffffffffffffffffffffffffffffff82169050919050565b6000819050919050565b60006144b4826144df565b9050919050565b60006144c6826144cd565b9050919050565b60006144d88261447f565b9050919050565b60006144ea826144f1565b9050919050565b60006144fc8261447f565b9050919050565b82818337600083830152505050565b60005b83811015614530578082015181840152602081019050614515565b8381111561453f576000848401525b50505050565bfe5b6000601f19601f8301169050919050565b61456181614435565b811461456c57600080fd5b50565b61457881614447565b811461458357600080fd5b50565b61458f81614453565b811461459a57600080fd5b50565b6145a68161449f565b81146145b157600080fd5b5056fe456e756d657261626c655365743a20696e646578206f7574206f6620626f756e64734552433732313a207472616e7366657220746f206e6f6e20455243373231526563656976657220696d706c656d656e7465724552433732313a207472616e7366657220746f20746865207a65726f2061646472657373416464726573733a20696e73756666696369656e742062616c616e636520666f722063616c6c4552433732313a206f70657261746f7220717565727920666f72206e6f6e6578697374656e7420746f6b656e4552433732313a20617070726f76652063616c6c6572206973206e6f74206f776e6572206e6f7220617070726f76656420666f7220616c6c4552433732313a2062616c616e636520717565727920666f7220746865207a65726f20616464726573734552433732313a206f776e657220717565727920666f72206e6f6e6578697374656e7420746f6b656e456e756d657261626c654d61703a20696e646578206f7574206f6620626f756e64734552433732313a20617070726f76656420717565727920666f72206e6f6e6578697374656e7420746f6b656e4552433732313a207472616e73666572206f6620746f6b656e2074686174206973206e6f74206f776e4552433732313a20617070726f76616c20746f2063757272656e74206f776e65724552433732313a207472616e736665722063616c6c6572206973206e6f74206f776e6572206e6f7220617070726f766564a2646970667358221220260f441cd45cf991321384c1e792c9a791755668f73e7d692a5c9fb30fa287f264736f6c63430007060033",
  "linkReferences": {
    "contracts/libs/NFTDescriptor.sol": {
      "NFTDescriptor": [
        {
          "length": 20,
          "start": 8118
        }
      ]
    }
  },
  "deployedLinkReferences": {
    "contracts/libs/NFTDescriptor.sol": {
      "NFTDescriptor": [
        {
          "length": 20,
          "start": 7127
        }
      ]
    }
  }
}